{
  "_format": "hh-sol-artifact-1",
  "contractName": "Todo",
  "sourceName": "contracts/Todo.sol",
  "abi": [
    {
      "anonymous": false,
      "inputs": [
        {
          "indexed": false,
          "internalType": "address",
          "name": "recipient",
          "type": "address"
        },
        {
          "indexed": false,
          "internalType": "uint256",
          "name": "taskId",
          "type": "uint256"
        }
      ],
      "name": "AddTask",
      "type": "event"
    },
    {
      "anonymous": false,
      "inputs": [
        {
          "indexed": false,
          "internalType": "uint256",
          "name": "taskId",
          "type": "uint256"
        },
        {
          "indexed": false,
          "internalType": "bool",
          "name": "completed",
          "type": "bool"
        }
      ],
      "name": "CompleteTask",
      "type": "event"
    },
    {
      "anonymous": false,
      "inputs": [
        {
          "components": [
            {
              "internalType": "uint256",
              "name": "id",
              "type": "uint256"
            },
            {
              "internalType": "string",
              "name": "body",
              "type": "string"
            },
            {
              "internalType": "bool",
              "name": "completed",
              "type": "bool"
            }
          ],
          "indexed": false,
          "internalType": "struct Todo.Task[]",
          "name": "",
          "type": "tuple[]"
        }
      ],
      "name": "ShowTasks",
      "type": "event"
    },
    {
      "inputs": [
        {
          "internalType": "string",
          "name": "body",
          "type": "string"
        }
      ],
      "name": "addTask",
      "outputs": [],
      "stateMutability": "nonpayable",
      "type": "function"
    },
    {
      "inputs": [
        {
          "internalType": "uint256",
          "name": "_taskId",
          "type": "uint256"
        }
      ],
      "name": "completeTask",
      "outputs": [],
      "stateMutability": "nonpayable",
      "type": "function"
    },
    {
      "inputs": [
        {
          "internalType": "uint256",
          "name": "_taskId",
          "type": "uint256"
        }
      ],
      "name": "deleteTask",
      "outputs": [],
      "stateMutability": "nonpayable",
      "type": "function"
    },
    {
      "inputs": [],
      "name": "getMyTasks",
      "outputs": [
        {
          "components": [
            {
              "internalType": "uint256",
              "name": "id",
              "type": "uint256"
            },
            {
              "internalType": "string",
              "name": "body",
              "type": "string"
            },
            {
              "internalType": "bool",
              "name": "completed",
              "type": "bool"
            }
          ],
          "internalType": "struct Todo.Task[]",
          "name": "",
          "type": "tuple[]"
        }
      ],
      "stateMutability": "view",
      "type": "function"
    },
    {
      "inputs": [],
      "name": "getTaskCount",
      "outputs": [
        {
          "internalType": "uint256",
          "name": "",
          "type": "uint256"
        }
      ],
      "stateMutability": "view",
      "type": "function"
    },
    {
      "inputs": [],
      "name": "taskId",
      "outputs": [
        {
          "internalType": "uint256",
          "name": "",
          "type": "uint256"
        }
      ],
      "stateMutability": "view",
      "type": "function"
    }
  ],
  "bytecode": "0x608060405234801561001057600080fd5b506110e7806100206000396000f3fe608060405234801561001057600080fd5b50600436106100625760003560e01c80633322b23d14610067578063560f31921461008557806367238562146100a15780636e13f818146100bd578063c17a340e146100db578063e1e29558146100f9575b600080fd5b61006f610115565b60405161007c9190610677565b60405180910390f35b61009f600480360381019061009a91906106d2565b61011b565b005b6100bb60048036038101906100b69190610845565b6101ac565b005b6100c5610329565b6040516100d29190610a49565b60405180910390f35b6100e361047c565b6040516100f09190610677565b60405180910390f35b610113600480360381019061010e91906106d2565b6104c6565b005b60005481565b600160003373ffffffffffffffffffffffffffffffffffffffff1673ffffffffffffffffffffffffffffffffffffffff168152602001908152602001600020818154811061016c5761016b610a6b565b5b90600052602060002090600302016000808201600090556001820160006101939190610601565b6002820160006101000a81549060ff0219169055505050565b600160003373ffffffffffffffffffffffffffffffffffffffff1673ffffffffffffffffffffffffffffffffffffffff168152602001908152602001600020604051806060016040528060005481526020018381526020016000151581525090806001815401808255809150506001900390600052602060002090600302016000909190919091506000820151816000015560208201518160010190816102539190610ca6565b5060408201518160020160006101000a81548160ff02191690831515021790555050507f72cc0c4ee64521ac2c642c4448cb1825fc938a9dd97ba1fbc814fa68dc2113ec600160003373ffffffffffffffffffffffffffffffffffffffff1673ffffffffffffffffffffffffffffffffffffffff1681526020019081526020016000206040516102e39190610f70565b60405180910390a17f1f54e1ba1832d428fbd7e7792beaf62b1fc5a382c207ffd614209c1413e94fda3360005460405161031e929190610fd3565b60405180910390a150565b6060600160003373ffffffffffffffffffffffffffffffffffffffff1673ffffffffffffffffffffffffffffffffffffffff168152602001908152602001600020805480602002602001604051908101604052809291908181526020016000905b828210156104735783829060005260206000209060030201604051806060016040529081600082015481526020016001820180546103c790610ac9565b80601f01602080910402602001604051908101604052809291908181526020018280546103f390610ac9565b80156104405780601f1061041557610100808354040283529160200191610440565b820191906000526020600020905b81548152906001019060200180831161042357829003601f168201915b505050505081526020016002820160009054906101000a900460ff1615151515815250508152602001906001019061038a565b50505050905090565b6000600160003373ffffffffffffffffffffffffffffffffffffffff1673ffffffffffffffffffffffffffffffffffffffff16815260200190815260200160002080549050905090565b600160003373ffffffffffffffffffffffffffffffffffffffff1673ffffffffffffffffffffffffffffffffffffffff16815260200190815260200160002080549050811061054a576040517f08c379a000000000000000000000000000000000000000000000000000000000815260040161054190611059565b60405180910390fd5b60018060003373ffffffffffffffffffffffffffffffffffffffff1673ffffffffffffffffffffffffffffffffffffffff168152602001908152602001600020828154811061059c5761059b610a6b565b5b906000526020600020906003020160020160006101000a81548160ff0219169083151502179055507fa4a1d94d1676fe30c56127e96641c5e95021748f1e6b8271009dde8177cc2ab48160016040516105f6929190611088565b60405180910390a150565b50805461060d90610ac9565b6000825580601f1061061f575061063e565b601f01602090049060005260206000209081019061063d9190610641565b5b50565b5b8082111561065a576000816000905550600101610642565b5090565b6000819050919050565b6106718161065e565b82525050565b600060208201905061068c6000830184610668565b92915050565b6000604051905090565b600080fd5b600080fd5b6106af8161065e565b81146106ba57600080fd5b50565b6000813590506106cc816106a6565b92915050565b6000602082840312156106e8576106e761069c565b5b60006106f6848285016106bd565b91505092915050565b600080fd5b600080fd5b6000601f19601f8301169050919050565b7f4e487b7100000000000000000000000000000000000000000000000000000000600052604160045260246000fd5b61075282610709565b810181811067ffffffffffffffff821117156107715761077061071a565b5b80604052505050565b6000610784610692565b90506107908282610749565b919050565b600067ffffffffffffffff8211156107b0576107af61071a565b5b6107b982610709565b9050602081019050919050565b82818337600083830152505050565b60006107e86107e384610795565b61077a565b90508281526020810184848401111561080457610803610704565b5b61080f8482856107c6565b509392505050565b600082601f83011261082c5761082b6106ff565b5b813561083c8482602086016107d5565b91505092915050565b60006020828403121561085b5761085a61069c565b5b600082013567ffffffffffffffff811115610879576108786106a1565b5b61088584828501610817565b91505092915050565b600081519050919050565b600082825260208201905092915050565b6000819050602082019050919050565b6108c38161065e565b82525050565b600081519050919050565b600082825260208201905092915050565b60005b838110156109035780820151818401526020810190506108e8565b60008484015250505050565b600061091a826108c9565b61092481856108d4565b93506109348185602086016108e5565b61093d81610709565b840191505092915050565b60008115159050919050565b61095d81610948565b82525050565b600060608301600083015161097b60008601826108ba565b5060208301518482036020860152610993828261090f565b91505060408301516109a86040860182610954565b508091505092915050565b60006109bf8383610963565b905092915050565b6000602082019050919050565b60006109df8261088e565b6109e98185610899565b9350836020820285016109fb856108aa565b8060005b85811015610a375784840389528151610a1885826109b3565b9450610a23836109c7565b925060208a019950506001810190506109ff565b50829750879550505050505092915050565b60006020820190508181036000830152610a6381846109d4565b905092915050565b7f4e487b7100000000000000000000000000000000000000000000000000000000600052603260045260246000fd5b7f4e487b7100000000000000000000000000000000000000000000000000000000600052602260045260246000fd5b60006002820490506001821680610ae157607f821691505b602082108103610af457610af3610a9a565b5b50919050565b60008190508160005260206000209050919050565b60006020601f8301049050919050565b600082821b905092915050565b600060088302610b5c7fffffffffffffffffffffffffffffffffffffffffffffffffffffffffffffffff82610b1f565b610b668683610b1f565b95508019841693508086168417925050509392505050565b6000819050919050565b6000610ba3610b9e610b998461065e565b610b7e565b61065e565b9050919050565b6000819050919050565b610bbd83610b88565b610bd1610bc982610baa565b848454610b2c565b825550505050565b600090565b610be6610bd9565b610bf1818484610bb4565b505050565b5b81811015610c1557610c0a600082610bde565b600181019050610bf7565b5050565b601f821115610c5a57610c2b81610afa565b610c3484610b0f565b81016020851015610c43578190505b610c57610c4f85610b0f565b830182610bf6565b50505b505050565b600082821c905092915050565b6000610c7d60001984600802610c5f565b1980831691505092915050565b6000610c968383610c6c565b9150826002028217905092915050565b610caf826108c9565b67ffffffffffffffff811115610cc857610cc761071a565b5b610cd28254610ac9565b610cdd828285610c19565b600060209050601f831160018114610d105760008415610cfe578287015190505b610d088582610c8a565b865550610d70565b601f198416610d1e86610afa565b60005b82811015610d4657848901518255600182019150602085019450602081019050610d21565b86831015610d635784890151610d5f601f891682610c6c565b8355505b6001600288020188555050505b505050505050565b600081549050919050565b60008190508160005260206000209050919050565b60008160001c9050919050565b6000819050919050565b6000610dc2610dbd83610d98565b610da5565b9050919050565b60008154610dd681610ac9565b610de081866108d4565b94506001821660008114610dfb5760018114610e1157610e44565b60ff198316865281151560200286019350610e44565b610e1a85610afa565b60005b83811015610e3c57815481890152600182019150602081019050610e1d565b808801955050505b50505092915050565b600060ff82169050919050565b6000610e6d610e6883610d98565b610e4d565b9050919050565b6000606083016000808401549050610e8b81610daf565b610e9860008701826108ba565b50600184018583036020870152610eaf8382610dc9565b92505060028401549050610ec281610e5a565b610ecf6040870182610954565b50819250505092915050565b6000610ee78383610e74565b905092915050565b6000600382019050919050565b6000610f0782610d78565b610f118185610899565b935083602082028501610f2385610d83565b8060005b85811015610f5e57848403895281610f3f8582610edb565b9450610f4a83610eef565b925060208a01995050600181019050610f27565b50829750879550505050505092915050565b60006020820190508181036000830152610f8a8184610efc565b905092915050565b600073ffffffffffffffffffffffffffffffffffffffff82169050919050565b6000610fbd82610f92565b9050919050565b610fcd81610fb2565b82525050565b6000604082019050610fe86000830185610fc4565b610ff56020830184610668565b9392505050565b600082825260208201905092915050565b7f4e6f207461736b20686173206265656e20616464656400000000000000000000600082015250565b6000611043601683610ffc565b915061104e8261100d565b602082019050919050565b6000602082019050818103600083015261107281611036565b9050919050565b61108281610948565b82525050565b600060408201905061109d6000830185610668565b6110aa6020830184611079565b939250505056fea264697066735822122092880cb43944c7237d36ee1a78bda37b7ca0b4e150c89575d61fc17c0ef0cd1864736f6c63430008140033",
  "linkReferences": {},
  "deployedLinkReferences": {}
}