{
  "_format": "hh-sol-artifact-1",
  "contractName": "Todo",
  "sourceName": "contracts/Todo.sol",
  "abi": [
    {
      "anonymous": false,
      "inputs": [
        {
          "indexed": false,
          "internalType": "uint256",
          "name": "taskId",
          "type": "uint256"
        },
        {
          "indexed": false,
          "internalType": "string",
          "name": "body",
          "type": "string"
        },
        {
          "indexed": false,
          "internalType": "uint256",
          "name": "len_of_tasks",
          "type": "uint256"
        }
      ],
      "name": "AddTask",
      "type": "event"
    },
    {
      "anonymous": false,
      "inputs": [
        {
          "indexed": false,
          "internalType": "uint256",
          "name": "taskId",
          "type": "uint256"
        },
        {
          "indexed": false,
          "internalType": "bool",
          "name": "completed",
          "type": "bool"
        }
      ],
      "name": "CompleteTask",
      "type": "event"
    },
    {
      "inputs": [
        {
          "internalType": "address",
          "name": "",
          "type": "address"
        }
      ],
      "name": "UserStatus",
      "outputs": [
        {
          "internalType": "enum Todo.Status",
          "name": "status",
          "type": "uint8"
        }
      ],
      "stateMutability": "view",
      "type": "function"
    },
    {
      "inputs": [
        {
          "internalType": "string",
          "name": "body",
          "type": "string"
        }
      ],
      "name": "addTask",
      "outputs": [],
      "stateMutability": "nonpayable",
      "type": "function"
    },
    {
      "inputs": [
        {
          "internalType": "uint256",
          "name": "_taskId",
          "type": "uint256"
        }
      ],
      "name": "completeTask",
      "outputs": [],
      "stateMutability": "nonpayable",
      "type": "function"
    },
    {
      "inputs": [],
      "name": "getMyTasks",
      "outputs": [
        {
          "components": [
            {
              "internalType": "uint256",
              "name": "id",
              "type": "uint256"
            },
            {
              "internalType": "string",
              "name": "body",
              "type": "string"
            },
            {
              "internalType": "bool",
              "name": "completed",
              "type": "bool"
            }
          ],
          "internalType": "struct Todo.Task[]",
          "name": "",
          "type": "tuple[]"
        }
      ],
      "stateMutability": "view",
      "type": "function"
    },
    {
      "inputs": [],
      "name": "getStatus",
      "outputs": [
        {
          "internalType": "enum Todo.Status",
          "name": "",
          "type": "uint8"
        }
      ],
      "stateMutability": "view",
      "type": "function"
    },
    {
      "inputs": [],
      "name": "getTaskCount",
      "outputs": [
        {
          "internalType": "uint256",
          "name": "",
          "type": "uint256"
        }
      ],
      "stateMutability": "view",
      "type": "function"
    },
    {
      "inputs": [
        {
          "internalType": "uint256",
          "name": "_status",
          "type": "uint256"
        }
      ],
      "name": "purchaseStatus",
      "outputs": [],
      "stateMutability": "payable",
      "type": "function"
    },
    {
      "inputs": [],
      "name": "taskId",
      "outputs": [
        {
          "internalType": "uint256",
          "name": "",
          "type": "uint256"
        }
      ],
      "stateMutability": "view",
      "type": "function"
    }
  ],
  "bytecode": "0x608060405234801561001057600080fd5b50611a07806100206000396000f3fe60806040526004361061007b5760003560e01c80636e13f8181161004e5780636e13f8181461011b5780638ec565a614610146578063c17a340e14610183578063e1e29558146101ae5761007b565b80633322b23d146100805780634e69d560146100ab578063538146f2146100d657806367238562146100f2575b600080fd5b34801561008c57600080fd5b506100956101d7565b6040516100a29190610d5c565b60405180910390f35b3480156100b757600080fd5b506100c06101dd565b6040516100cd9190610dee565b60405180910390f35b6100f060048036038101906100eb9190610e49565b610234565b005b3480156100fe57600080fd5b5061011960048036038101906101149190610fbc565b6103d0565b005b34801561012757600080fd5b50610130610a3f565b60405161013d91906111c0565b60405180910390f35b34801561015257600080fd5b5061016d60048036038101906101689190611240565b610b92565b60405161017a9190610dee565b60405180910390f35b34801561018f57600080fd5b50610198610bbd565b6040516101a59190610d5c565b60405180910390f35b3480156101ba57600080fd5b506101d560048036038101906101d09190610e49565b610c07565b005b60005481565b6000600260003373ffffffffffffffffffffffffffffffffffffffff1673ffffffffffffffffffffffffffffffffffffffff16815260200190815260200160002060000160009054906101000a900460ff16905090565b60018110158015610246575060028111155b610285576040517f08c379a000000000000000000000000000000000000000000000000000000000815260040161027c906112ca565b60405180910390fd5b80600260003373ffffffffffffffffffffffffffffffffffffffff1673ffffffffffffffffffffffffffffffffffffffff16815260200190815260200160002060000160009054906101000a900460ff1660028111156102e8576102e7610d77565b5b10610328576040517f08c379a000000000000000000000000000000000000000000000000000000000815260040161031f9061135c565b60405180910390fd5b604051806020016040528082600281111561034657610345610d77565b5b600281111561035857610357610d77565b5b815250600260003373ffffffffffffffffffffffffffffffffffffffff1673ffffffffffffffffffffffffffffffffffffffff16815260200190815260200160002060008201518160000160006101000a81548160ff021916908360028111156103c5576103c4610d77565b5b021790555090505050565b6000805b600160003373ffffffffffffffffffffffffffffffffffffffff1673ffffffffffffffffffffffffffffffffffffffff168152602001908152602001600020805490508110156104b457600160003373ffffffffffffffffffffffffffffffffffffffff1673ffffffffffffffffffffffffffffffffffffffff168152602001908152602001600020818154811061046f5761046e61137c565b5b906000526020600020906003020160020160009054906101000a900460ff166104a157818061049d906113da565b9250505b80806104ac906113da565b9150506103d4565b50600060028111156104c9576104c8610d77565b5b600260003373ffffffffffffffffffffffffffffffffffffffff1673ffffffffffffffffffffffffffffffffffffffff16815260200190815260200160002060000160009054906101000a900460ff16600281111561052b5761052a610d77565b5b036106a25760038110610573576040517f08c379a000000000000000000000000000000000000000000000000000000000815260040161056a90611494565b60405180910390fd5b600160003373ffffffffffffffffffffffffffffffffffffffff1673ffffffffffffffffffffffffffffffffffffffff16815260200190815260200160002080549050600081905550600160003373ffffffffffffffffffffffffffffffffffffffff1673ffffffffffffffffffffffffffffffffffffffff1681526020019081526020016000206040518060600160405280600054815260200184815260200160001515815250908060018154018082558091505060019003906000526020600020906003020160009091909190915060008201518160000155602082015181600101908161066391906116c0565b5060408201518160020160006101000a81548160ff0219169083151502179055505050600080815480929190610698906113da565b91905055506109fe565b600160028111156106b6576106b5610d77565b5b600260003373ffffffffffffffffffffffffffffffffffffffff1673ffffffffffffffffffffffffffffffffffffffff16815260200190815260200160002060000160009054906101000a900460ff16600281111561071857610717610d77565b5b0361088f5760058110610760576040517f08c379a000000000000000000000000000000000000000000000000000000000815260040161075790611804565b60405180910390fd5b600160003373ffffffffffffffffffffffffffffffffffffffff1673ffffffffffffffffffffffffffffffffffffffff16815260200190815260200160002080549050600081905550600160003373ffffffffffffffffffffffffffffffffffffffff1673ffffffffffffffffffffffffffffffffffffffff1681526020019081526020016000206040518060600160405280600054815260200184815260200160001515815250908060018154018082558091505060019003906000526020600020906003020160009091909190915060008201518160000155602082015181600101908161085091906116c0565b5060408201518160020160006101000a81548160ff0219169083151502179055505050600080815480929190610885906113da565b91905055506109fd565b600781106108d2576040517f08c379a00000000000000000000000000000000000000000000000000000000081526004016108c990611896565b60405180910390fd5b600160003373ffffffffffffffffffffffffffffffffffffffff1673ffffffffffffffffffffffffffffffffffffffff16815260200190815260200160002080549050600081905550600160003373ffffffffffffffffffffffffffffffffffffffff1673ffffffffffffffffffffffffffffffffffffffff168152602001908152602001600020604051806060016040528060005481526020018481526020016000151581525090806001815401808255809150506001900390600052602060002090600302016000909190919091506000820151816000015560208201518160010190816109c291906116c0565b5060408201518160020160006101000a81548160ff02191690831515021790555050506000808154809291906109f7906113da565b91905055505b5b7f7e59ec17a115a14324de4a65e768c19d93689db68eb72e26e18717bea1c6cf5a6000548383604051610a33939291906118ef565b60405180910390a15050565b6060600160003373ffffffffffffffffffffffffffffffffffffffff1673ffffffffffffffffffffffffffffffffffffffff168152602001908152602001600020805480602002602001604051908101604052809291908181526020016000905b82821015610b89578382906000526020600020906003020160405180606001604052908160008201548152602001600182018054610add906114e3565b80601f0160208091040260200160405190810160405280929190818152602001828054610b09906114e3565b8015610b565780601f10610b2b57610100808354040283529160200191610b56565b820191906000526020600020905b815481529060010190602001808311610b3957829003601f168201915b505050505081526020016002820160009054906101000a900460ff16151515158152505081526020019060010190610aa0565b50505050905090565b60026020528060005260406000206000915090508060000160009054906101000a900460ff16905081565b6000600160003373ffffffffffffffffffffffffffffffffffffffff1673ffffffffffffffffffffffffffffffffffffffff16815260200190815260200160002080549050905090565b600160003373ffffffffffffffffffffffffffffffffffffffff1673ffffffffffffffffffffffffffffffffffffffff16815260200190815260200160002080549050811115610c8c576040517f08c379a0000000000000000000000000000000000000000000000000000000008152600401610c8390611979565b60405180910390fd5b60018060003373ffffffffffffffffffffffffffffffffffffffff1673ffffffffffffffffffffffffffffffffffffffff1681526020019081526020016000208281548110610cde57610cdd61137c565b5b906000526020600020906003020160020160006101000a81548160ff0219169083151502179055507fa4a1d94d1676fe30c56127e96641c5e95021748f1e6b8271009dde8177cc2ab4816001604051610d389291906119a8565b60405180910390a150565b6000819050919050565b610d5681610d43565b82525050565b6000602082019050610d716000830184610d4d565b92915050565b7f4e487b7100000000000000000000000000000000000000000000000000000000600052602160045260246000fd5b60038110610db757610db6610d77565b5b50565b6000819050610dc882610da6565b919050565b6000610dd882610dba565b9050919050565b610de881610dcd565b82525050565b6000602082019050610e036000830184610ddf565b92915050565b6000604051905090565b600080fd5b600080fd5b610e2681610d43565b8114610e3157600080fd5b50565b600081359050610e4381610e1d565b92915050565b600060208284031215610e5f57610e5e610e13565b5b6000610e6d84828501610e34565b91505092915050565b600080fd5b600080fd5b6000601f19601f8301169050919050565b7f4e487b7100000000000000000000000000000000000000000000000000000000600052604160045260246000fd5b610ec982610e80565b810181811067ffffffffffffffff82111715610ee857610ee7610e91565b5b80604052505050565b6000610efb610e09565b9050610f078282610ec0565b919050565b600067ffffffffffffffff821115610f2757610f26610e91565b5b610f3082610e80565b9050602081019050919050565b82818337600083830152505050565b6000610f5f610f5a84610f0c565b610ef1565b905082815260208101848484011115610f7b57610f7a610e7b565b5b610f86848285610f3d565b509392505050565b600082601f830112610fa357610fa2610e76565b5b8135610fb3848260208601610f4c565b91505092915050565b600060208284031215610fd257610fd1610e13565b5b600082013567ffffffffffffffff811115610ff057610fef610e18565b5b610ffc84828501610f8e565b91505092915050565b600081519050919050565b600082825260208201905092915050565b6000819050602082019050919050565b61103a81610d43565b82525050565b600081519050919050565b600082825260208201905092915050565b60005b8381101561107a57808201518184015260208101905061105f565b60008484015250505050565b600061109182611040565b61109b818561104b565b93506110ab81856020860161105c565b6110b481610e80565b840191505092915050565b60008115159050919050565b6110d4816110bf565b82525050565b60006060830160008301516110f26000860182611031565b506020830151848203602086015261110a8282611086565b915050604083015161111f60408601826110cb565b508091505092915050565b600061113683836110da565b905092915050565b6000602082019050919050565b600061115682611005565b6111608185611010565b93508360208202850161117285611021565b8060005b858110156111ae578484038952815161118f858261112a565b945061119a8361113e565b925060208a01995050600181019050611176565b50829750879550505050505092915050565b600060208201905081810360008301526111da818461114b565b905092915050565b600073ffffffffffffffffffffffffffffffffffffffff82169050919050565b600061120d826111e2565b9050919050565b61121d81611202565b811461122857600080fd5b50565b60008135905061123a81611214565b92915050565b60006020828403121561125657611255610e13565b5b60006112648482850161122b565b91505092915050565b600082825260208201905092915050565b7f4f7574206f662072616e67650000000000000000000000000000000000000000600082015250565b60006112b4600c8361126d565b91506112bf8261127e565b602082019050919050565b600060208201905081810360008301526112e3816112a7565b9050919050565b7f596f75206861766520616c7265616479207072656d69756d207375627363726960008201527f7074696f6e000000000000000000000000000000000000000000000000000000602082015250565b600061134660258361126d565b9150611351826112ea565b604082019050919050565b6000602082019050818103600083015261137581611339565b9050919050565b7f4e487b7100000000000000000000000000000000000000000000000000000000600052603260045260246000fd5b7f4e487b7100000000000000000000000000000000000000000000000000000000600052601160045260246000fd5b60006113e582610d43565b91507fffffffffffffffffffffffffffffffffffffffffffffffffffffffffffffffff8203611417576114166113ab565b5b600182019050919050565b7f596f752063616e277420616464206d6f7265207468616e2033207461736b732c60008201527f206265636175736520796f752061726520667265652075736572000000000000602082015250565b600061147e603a8361126d565b915061148982611422565b604082019050919050565b600060208201905081810360008301526114ad81611471565b9050919050565b7f4e487b7100000000000000000000000000000000000000000000000000000000600052602260045260246000fd5b600060028204905060018216806114fb57607f821691505b60208210810361150e5761150d6114b4565b5b50919050565b60008190508160005260206000209050919050565b60006020601f8301049050919050565b600082821b905092915050565b6000600883026115767fffffffffffffffffffffffffffffffffffffffffffffffffffffffffffffffff82611539565b6115808683611539565b95508019841693508086168417925050509392505050565b6000819050919050565b60006115bd6115b86115b384610d43565b611598565b610d43565b9050919050565b6000819050919050565b6115d7836115a2565b6115eb6115e3826115c4565b848454611546565b825550505050565b600090565b6116006115f3565b61160b8184846115ce565b505050565b5b8181101561162f576116246000826115f8565b600181019050611611565b5050565b601f8211156116745761164581611514565b61164e84611529565b8101602085101561165d578190505b61167161166985611529565b830182611610565b50505b505050565b600082821c905092915050565b600061169760001984600802611679565b1980831691505092915050565b60006116b08383611686565b9150826002028217905092915050565b6116c982611040565b67ffffffffffffffff8111156116e2576116e1610e91565b5b6116ec82546114e3565b6116f7828285611633565b600060209050601f83116001811461172a5760008415611718578287015190505b61172285826116a4565b86555061178a565b601f19841661173886611514565b60005b828110156117605784890151825560018201915060208501945060208101905061173b565b8683101561177d5784890151611779601f891682611686565b8355505b6001600288020188555050505b505050505050565b7f596f752063616e277420616464206d6f7265207468616e2035207461736b732c60008201527f206265636175736520796f752061726520564950207573657200000000000000602082015250565b60006117ee60398361126d565b91506117f982611792565b604082019050919050565b6000602082019050818103600083015261181d816117e1565b9050919050565b7f596f752063616e277420616464206d6f7265207468616e2037207461736b732c60008201527f206265636175736520796f7520617265205072656d69756d2075736572000000602082015250565b6000611880603d8361126d565b915061188b82611824565b604082019050919050565b600060208201905081810360008301526118af81611873565b9050919050565b60006118c182611040565b6118cb818561126d565b93506118db81856020860161105c565b6118e481610e80565b840191505092915050565b60006060820190506119046000830186610d4d565b818103602083015261191681856118b6565b90506119256040830184610d4d565b949350505050565b7f4e6f207461736b20686173206265656e20616464656400000000000000000000600082015250565b600061196360168361126d565b915061196e8261192d565b602082019050919050565b6000602082019050818103600083015261199281611956565b9050919050565b6119a2816110bf565b82525050565b60006040820190506119bd6000830185610d4d565b6119ca6020830184611999565b939250505056fea26469706673582212201da1559af9b74e5e13990b9b50e67253246631f99854abab97e00a2fd7934a7164736f6c63430008140033",
  "linkReferences": {},
  "deployedLinkReferences": {}
}