{
  "_format": "hh-sol-artifact-1",
  "contractName": "Todo",
  "sourceName": "contracts/Todo.sol",
  "abi": [
    {
      "anonymous": false,
      "inputs": [
        {
          "indexed": false,
          "internalType": "uint256",
          "name": "taskId",
          "type": "uint256"
        },
        {
          "indexed": false,
          "internalType": "string",
          "name": "body",
          "type": "string"
        }
      ],
      "name": "AddTask",
      "type": "event"
    },
    {
      "anonymous": false,
      "inputs": [
        {
          "indexed": false,
          "internalType": "uint256",
          "name": "taskId",
          "type": "uint256"
        },
        {
          "indexed": false,
          "internalType": "bool",
          "name": "completed",
          "type": "bool"
        }
      ],
      "name": "CompleteTask",
      "type": "event"
    },
    {
      "inputs": [
        {
          "internalType": "string",
          "name": "body",
          "type": "string"
        }
      ],
      "name": "addTask",
      "outputs": [],
      "stateMutability": "nonpayable",
      "type": "function"
    },
    {
      "inputs": [
        {
          "internalType": "uint256",
          "name": "_taskId",
          "type": "uint256"
        }
      ],
      "name": "completeTask",
      "outputs": [],
      "stateMutability": "nonpayable",
      "type": "function"
    },
    {
      "inputs": [
        {
          "internalType": "uint256",
          "name": "_taskId",
          "type": "uint256"
        }
      ],
      "name": "deleteTask",
      "outputs": [],
      "stateMutability": "nonpayable",
      "type": "function"
    },
    {
      "inputs": [
        {
          "internalType": "uint256",
          "name": "idTask",
          "type": "uint256"
        }
      ],
      "name": "getMyTasks",
      "outputs": [
        {
          "internalType": "uint256",
          "name": "id",
          "type": "uint256"
        },
        {
          "internalType": "string",
          "name": "body",
          "type": "string"
        },
        {
          "internalType": "bool",
          "name": "completed",
          "type": "bool"
        }
      ],
      "stateMutability": "view",
      "type": "function"
    },
    {
      "inputs": [],
      "name": "getTaskCount",
      "outputs": [
        {
          "internalType": "uint256",
          "name": "",
          "type": "uint256"
        }
      ],
      "stateMutability": "view",
      "type": "function"
    },
    {
      "inputs": [],
      "name": "taskId",
      "outputs": [
        {
          "internalType": "uint256",
          "name": "",
          "type": "uint256"
        }
      ],
      "stateMutability": "view",
      "type": "function"
    }
  ],
  "bytecode": "0x608060405234801561001057600080fd5b50610e65806100206000396000f3fe608060405234801561001057600080fd5b50600436106100625760003560e01c80633322b23d14610067578063560f31921461008557806367238562146100a15780639a36b3c7146100bd578063c17a340e146100ef578063e1e295581461010d575b600080fd5b61006f610129565b60405161007c91906106f7565b60405180910390f35b61009f600480360381019061009a9190610752565b61012f565b005b6100bb60048036038101906100b691906108c5565b6101c0565b005b6100d760048036038101906100d29190610752565b610328565b6040516100e6939291906109a8565b60405180910390f35b6100f76104fc565b60405161010491906106f7565b60405180910390f35b61012760048036038101906101229190610752565b610546565b005b60005481565b600160003373ffffffffffffffffffffffffffffffffffffffff1673ffffffffffffffffffffffffffffffffffffffff16815260200190815260200160002081815481106101805761017f6109e6565b5b90600052602060002090600302016000808201600090556001820160006101a79190610681565b6002820160006101000a81549060ff0219169055505050565b600160003373ffffffffffffffffffffffffffffffffffffffff1673ffffffffffffffffffffffffffffffffffffffff16815260200190815260200160002080549050600081905550600160003373ffffffffffffffffffffffffffffffffffffffff1673ffffffffffffffffffffffffffffffffffffffff168152602001908152602001600020604051806060016040528060005481526020018381526020016000151581525090806001815401808255809150506001900390600052602060002090600302016000909190919091506000820151816000015560208201518160010190816102b09190610c21565b5060408201518160020160006101000a81548160ff02191690831515021790555050506000808154809291906102e590610d22565b91905055507f6ad20d8da1564e774300b4e107a11d13790f71164a51e9dfdd07bb28939007976000548260405161031d929190610d6a565b60405180910390a150565b600060606000600160003373ffffffffffffffffffffffffffffffffffffffff1673ffffffffffffffffffffffffffffffffffffffff168152602001908152602001600020848154811061037f5761037e6109e6565b5b906000526020600020906003020160000154600160003373ffffffffffffffffffffffffffffffffffffffff1673ffffffffffffffffffffffffffffffffffffffff16815260200190815260200160002085815481106103e2576103e16109e6565b5b9060005260206000209060030201600101600160003373ffffffffffffffffffffffffffffffffffffffff1673ffffffffffffffffffffffffffffffffffffffff1681526020019081526020016000208681548110610444576104436109e6565b5b906000526020600020906003020160020160009054906101000a900460ff1681805461046f90610a44565b80601f016020809104026020016040519081016040528092919081815260200182805461049b90610a44565b80156104e85780601f106104bd576101008083540402835291602001916104e8565b820191906000526020600020905b8154815290600101906020018083116104cb57829003601f168201915b505050505091509250925092509193909250565b6000600160003373ffffffffffffffffffffffffffffffffffffffff1673ffffffffffffffffffffffffffffffffffffffff16815260200190815260200160002080549050905090565b600160003373ffffffffffffffffffffffffffffffffffffffff1673ffffffffffffffffffffffffffffffffffffffff1681526020019081526020016000208054905081106105ca576040517f08c379a00000000000000000000000000000000000000000000000000000000081526004016105c190610de6565b60405180910390fd5b60018060003373ffffffffffffffffffffffffffffffffffffffff1673ffffffffffffffffffffffffffffffffffffffff168152602001908152602001600020828154811061061c5761061b6109e6565b5b906000526020600020906003020160020160006101000a81548160ff0219169083151502179055507fa4a1d94d1676fe30c56127e96641c5e95021748f1e6b8271009dde8177cc2ab4816001604051610676929190610e06565b60405180910390a150565b50805461068d90610a44565b6000825580601f1061069f57506106be565b601f0160209004906000526020600020908101906106bd91906106c1565b5b50565b5b808211156106da5760008160009055506001016106c2565b5090565b6000819050919050565b6106f1816106de565b82525050565b600060208201905061070c60008301846106e8565b92915050565b6000604051905090565b600080fd5b600080fd5b61072f816106de565b811461073a57600080fd5b50565b60008135905061074c81610726565b92915050565b6000602082840312156107685761076761071c565b5b60006107768482850161073d565b91505092915050565b600080fd5b600080fd5b6000601f19601f8301169050919050565b7f4e487b7100000000000000000000000000000000000000000000000000000000600052604160045260246000fd5b6107d282610789565b810181811067ffffffffffffffff821117156107f1576107f061079a565b5b80604052505050565b6000610804610712565b905061081082826107c9565b919050565b600067ffffffffffffffff8211156108305761082f61079a565b5b61083982610789565b9050602081019050919050565b82818337600083830152505050565b600061086861086384610815565b6107fa565b90508281526020810184848401111561088457610883610784565b5b61088f848285610846565b509392505050565b600082601f8301126108ac576108ab61077f565b5b81356108bc848260208601610855565b91505092915050565b6000602082840312156108db576108da61071c565b5b600082013567ffffffffffffffff8111156108f9576108f8610721565b5b61090584828501610897565b91505092915050565b600081519050919050565b600082825260208201905092915050565b60005b8381101561094857808201518184015260208101905061092d565b60008484015250505050565b600061095f8261090e565b6109698185610919565b935061097981856020860161092a565b61098281610789565b840191505092915050565b60008115159050919050565b6109a28161098d565b82525050565b60006060820190506109bd60008301866106e8565b81810360208301526109cf8185610954565b90506109de6040830184610999565b949350505050565b7f4e487b7100000000000000000000000000000000000000000000000000000000600052603260045260246000fd5b7f4e487b7100000000000000000000000000000000000000000000000000000000600052602260045260246000fd5b60006002820490506001821680610a5c57607f821691505b602082108103610a6f57610a6e610a15565b5b50919050565b60008190508160005260206000209050919050565b60006020601f8301049050919050565b600082821b905092915050565b600060088302610ad77fffffffffffffffffffffffffffffffffffffffffffffffffffffffffffffffff82610a9a565b610ae18683610a9a565b95508019841693508086168417925050509392505050565b6000819050919050565b6000610b1e610b19610b14846106de565b610af9565b6106de565b9050919050565b6000819050919050565b610b3883610b03565b610b4c610b4482610b25565b848454610aa7565b825550505050565b600090565b610b61610b54565b610b6c818484610b2f565b505050565b5b81811015610b9057610b85600082610b59565b600181019050610b72565b5050565b601f821115610bd557610ba681610a75565b610baf84610a8a565b81016020851015610bbe578190505b610bd2610bca85610a8a565b830182610b71565b50505b505050565b600082821c905092915050565b6000610bf860001984600802610bda565b1980831691505092915050565b6000610c118383610be7565b9150826002028217905092915050565b610c2a8261090e565b67ffffffffffffffff811115610c4357610c4261079a565b5b610c4d8254610a44565b610c58828285610b94565b600060209050601f831160018114610c8b5760008415610c79578287015190505b610c838582610c05565b865550610ceb565b601f198416610c9986610a75565b60005b82811015610cc157848901518255600182019150602085019450602081019050610c9c565b86831015610cde5784890151610cda601f891682610be7565b8355505b6001600288020188555050505b505050505050565b7f4e487b7100000000000000000000000000000000000000000000000000000000600052601160045260246000fd5b6000610d2d826106de565b91507fffffffffffffffffffffffffffffffffffffffffffffffffffffffffffffffff8203610d5f57610d5e610cf3565b5b600182019050919050565b6000604082019050610d7f60008301856106e8565b8181036020830152610d918184610954565b90509392505050565b7f4e6f207461736b20686173206265656e20616464656400000000000000000000600082015250565b6000610dd0601683610919565b9150610ddb82610d9a565b602082019050919050565b60006020820190508181036000830152610dff81610dc3565b9050919050565b6000604082019050610e1b60008301856106e8565b610e286020830184610999565b939250505056fea2646970667358221220e24c5abaea2b68d1063583120d540e6656e176970c4b5169ed39f23261a98a6764736f6c63430008140033",
  "linkReferences": {},
  "deployedLinkReferences": {}
}